{
  "contractName": "Bank",
  "abi": [
    {
      "inputs": [],
      "stateMutability": "nonpayable",
      "type": "constructor"
    },
    {
      "inputs": [
        {
          "internalType": "address",
          "name": "",
          "type": "address"
        }
      ],
      "name": "balances",
      "outputs": [
        {
          "internalType": "uint256",
          "name": "",
          "type": "uint256"
        }
      ],
      "stateMutability": "view",
      "type": "function",
      "constant": true
    },
    {
      "inputs": [],
      "name": "owner",
      "outputs": [
        {
          "internalType": "address",
          "name": "",
          "type": "address"
        }
      ],
      "stateMutability": "view",
      "type": "function",
      "constant": true
    },
    {
      "inputs": [
        {
          "internalType": "uint256",
          "name": "",
          "type": "uint256"
        }
      ],
      "name": "users",
      "outputs": [
        {
          "internalType": "address",
          "name": "",
          "type": "address"
        }
      ],
      "stateMutability": "view",
      "type": "function",
      "constant": true
    },
    {
      "inputs": [],
      "name": "deposit",
      "outputs": [],
      "stateMutability": "payable",
      "type": "function",
      "payable": true
    },
    {
      "inputs": [
        {
          "internalType": "uint256",
          "name": "amount",
          "type": "uint256"
        }
      ],
      "name": "withdraw",
      "outputs": [],
      "stateMutability": "nonpayable",
      "type": "function"
    }
  ],
  "bytecode": "0x608060405234801561001057600080fd5b50336000806101000a81548173ffffffffffffffffffffffffffffffffffffffff021916908373ffffffffffffffffffffffffffffffffffffffff160217905550610705806100606000396000f3fe60806040526004361061004a5760003560e01c806327e235e31461004f5780632e1a7d4d1461008c578063365b98b2146100b55780638da5cb5b146100f2578063d0e30db01461011d575b600080fd5b34801561005b57600080fd5b5061007660048036038101906100719190610435565b610127565b6040516100839190610580565b60405180910390f35b34801561009857600080fd5b506100b360048036038101906100ae919061045e565b61013f565b005b3480156100c157600080fd5b506100dc60048036038101906100d7919061045e565b610261565b6040516100e99190610525565b60405180910390f35b3480156100fe57600080fd5b506101076102a0565b6040516101149190610525565b60405180910390f35b6101256102c4565b005b60016020528060005260406000206000915090505481565b80600160003373ffffffffffffffffffffffffffffffffffffffff1673ffffffffffffffffffffffffffffffffffffffff1681526020019081526020016000205410156101c1576040517f08c379a00000000000000000000000000000000000000000000000000000000081526004016101b890610560565b60405180910390fd5b3373ffffffffffffffffffffffffffffffffffffffff166108fc829081150290604051600060405180830381858888f19350505050158015610207573d6000803e3d6000fd5b5080600160003373ffffffffffffffffffffffffffffffffffffffff1673ffffffffffffffffffffffffffffffffffffffff16815260200190815260200160002060008282546102579190610602565b9250508190555050565b6002818154811061027157600080fd5b906000526020600020016000915054906101000a900473ffffffffffffffffffffffffffffffffffffffff1681565b60008054906101000a900473ffffffffffffffffffffffffffffffffffffffff1681565b60003411610307576040517f08c379a00000000000000000000000000000000000000000000000000000000081526004016102fe90610540565b60405180910390fd5b6000600160003373ffffffffffffffffffffffffffffffffffffffff1673ffffffffffffffffffffffffffffffffffffffff1681526020019081526020016000205414156103b3576002339080600181540180825580915050600190039060005260206000200160009091909190916101000a81548173ffffffffffffffffffffffffffffffffffffffff021916908373ffffffffffffffffffffffffffffffffffffffff1602179055505b34600160003373ffffffffffffffffffffffffffffffffffffffff1673ffffffffffffffffffffffffffffffffffffffff168152602001908152602001600020600082825461040291906105ac565b92505081905550565b60008135905061041a816106a1565b92915050565b60008135905061042f816106b8565b92915050565b60006020828403121561044757600080fd5b60006104558482850161040b565b91505092915050565b60006020828403121561047057600080fd5b600061047e84828501610420565b91505092915050565b61049081610636565b82525050565b60006104a360148361059b565b91507f4d7573742073656e6420736f6d652065746865720000000000000000000000006000830152602082019050919050565b60006104e360148361059b565b91507f496e73756666696369656e742062616c616e63650000000000000000000000006000830152602082019050919050565b61051f81610668565b82525050565b600060208201905061053a6000830184610487565b92915050565b6000602082019050818103600083015261055981610496565b9050919050565b60006020820190508181036000830152610579816104d6565b9050919050565b60006020820190506105956000830184610516565b92915050565b600082825260208201905092915050565b60006105b782610668565b91506105c283610668565b9250827fffffffffffffffffffffffffffffffffffffffffffffffffffffffffffffffff038211156105f7576105f6610672565b5b828201905092915050565b600061060d82610668565b915061061883610668565b92508282101561062b5761062a610672565b5b828203905092915050565b600061064182610648565b9050919050565b600073ffffffffffffffffffffffffffffffffffffffff82169050919050565b6000819050919050565b7f4e487b7100000000000000000000000000000000000000000000000000000000600052601160045260246000fd5b6106aa81610636565b81146106b557600080fd5b50565b6106c181610668565b81146106cc57600080fd5b5056fea26469706673582212204d4d06e1d864ec1342cd6c7ea7d5589a337c6f1d81b8a6e58f69aa50cec9924664736f6c63430008000033",
  "immutableReferences": {},
  "source": "// SPDX-License-Identifier: MIT\npragma solidity ^0.8.0;\n\ncontract Bank {\n    address public owner;\n    mapping(address => uint) public balances;\n    address[] public users;\n\n    constructor() {\n        owner = msg.sender;\n    }\n\n    function deposit() public payable {\n        require(msg.value > 0, \"Must send some ether\");\n        if (balances[msg.sender] == 0) {\n            users.push(msg.sender);\n        }\n        balances[msg.sender] += msg.value;\n    }\n\n    function withdraw(uint amount) public {\n        require(balances[msg.sender] >= amount, \"Insufficient balance\");\n        payable(msg.sender).transfer(amount);\n        balances[msg.sender] -= amount;\n    }\n}\n",
  "sourcePath": "/Users/souayahmalek/Downloads/newProject/contracts/Bank.sol",
  "compiler": {
    "name": "solc",
    "version": "0.8.0+commit.c7dfd78e.Emscripten.clang"
  },
  "schemaVersion": "3.4.16",
  "updatedAt": "2025-05-10T10:32:46.772Z",
  "networkType": "ethereum",
  "devdoc": {
    "kind": "dev",
    "methods": {},
    "version": 1
  },
  "userdoc": {
    "kind": "user",
    "methods": {},
    "version": 1
  }
}